:100000000C942A000C9468010C9468010C9468010B
:100010000C9468010C9468010C9468010C946801BC
:100020000C9468010C9468010C9468010C946801AC
:100030000C9468010C9468010C9468010C9468019C
:100040000C9468010C9468010C9468010C9468018C
:100050000C94680111241FBECFE5D8E0DEBFCDBFF0
:0C0060000E9439010C944D01F894FFCF70
:0C006C003132333435363738392A30232E
:10007800E4E0F0E0AFEFBFEF38C082B361E070E0DA
:100088000E2E02C0660F771F0A94E2F7962F9095FE
:10009800892382BB20E030E044E016C080B390E0C2
:1000A800022E02C0959587950A94E2F780FD09C053
:1000B800CF01821B930BDC01A41BB10947FDB3954B
:1000C80006C044502F5F3F4F243031053CF3AF3F0B
:1000D8008FEFB80769F482B3682B62BB8FE99FE0A2
:1000E8000197F1F700C000003196E730F1052CF2D6
:1000F800AF3F9FEFB90759F0CD01BB0FAA0B845949
:100108009F4FAF4FFC018491A7FD8081089589E737
:02011800089548
:10011A0098B39B7F98BB98B39D7F98BB9BB39F7006
:10012A00282F207F922B9BBBEFECF7E03197F1F75A
:10013A0000C0000098B3916098BB98B3946098BBD4
:10014A00EFE5FAEE3197F1F700C0000098B39B7F14
:10015A0098BBEFE5FAEE3197F1F700C0000098B3CB
:10016A009D7F98BB2BB3F0E18F9FC0011124922F82
:10017A009F70892B8BBB8FEC97E00197F1F700C03A
:10018A00000088B3816088BB88B3846088BBEFE5D0
:10019A00FAEE3197F1F700C0000088B38B7F88BB75
:0201AA000895B6
:1001AC0018BA9BB39F70282F207F922B9BBBEFEC30
:1001BC00F7E03197F1F700C0000098B3946098BB5A
:1001CC00EFE5FAEE3197F1F700C0000098B39B7F92
:1001DC0098BBEFE5FAEE3197F1F700C0000018BAC2
:1001EC002BB3F0E18F9FC0011124922F9F70892BAC
:1001FC008BBB8FEC97E00197F1F700C0000088B340
:10020C00846088BBEFE5FAEE3197F1F700C000008F
:08021C0088B38B7F88BB0895B5
:100224000E9461018FE39CE90197F1F700C000008F
:1002340082E00E94D60088E20E94D6008FEC97E00C
:100244000197F1F700C000008EE00E94D6008FEC09
:1002540097E00197F1F700C0000086E00E94D60005
:0E0264008FEC97E00197F1F700C000000895BD
:100272000E9412010E9458010E943C008937E1F35A
:100282000E948D002FEF82E597E021508040904040
:08029200E1F700C00000F0CF0D
:10029A00EC010E946D010E946C01CE010E946E0168
:0602AA00CE010E946A0172
:1002B00081B3807F81BB81B3806781BB8FEF82BBBD
:0202C00008959F
:0E02C2008AB3806F8ABB87B3876087BB0895BD
:0402D0000C9400008A
:0402D4000E94340050
:0202D800089587
:0202DA00089585
:0202DC00089583
:00000001FF
