:100000000C942A000C9484000C9484000C948400BA
:100010000C9484000C9484000C9484000C94840050
:100020000C9484000C9484000C9484000C94840040
:100030000C9484000C9484000C9484000C94840030
:100040000C9484000C9484000C9484000C94840020
:100050000C94840011241FBECFE5D8E0DEBFCDBFD5
:0C0060000E9436000C947300F894FFCF4F
:10006C000E947E0021E095E0809B33C0983020F404
:10007C00213021F081E003C081E001C080E08823C1
:10008C0019F0813079F01FC021E030E0092E02C058
:10009C00220F331F0A94E2F782B3282722BB9F5FFB
:1000AC0021E011C0915021E030E0092E02C0220F56
:1000BC00331F0A94E2F782B3282722BB953011F044
:1000CC0020E001C021E082B3806182BB8099FECF29
:0A00DC00CBCF82B38F7E82BBC7CF6B
:1000E600EC010E9489000E948800CE010E948A00CD
:0600F600CE010E9486000D
:0C00FC0081B3806E8E7F806181BB08950F
:040108000C94000053
:04010C000E94340019
:02011000089550
:0201120008954E
:0201140008954C
:00000001FF
